{
	"fourth.sol": {
		"Third": {
			"abi": [
				{
					"inputs": [],
					"name": "B",
					"outputs": [
						{
							"internalType": "int256",
							"name": "",
							"type": "int256"
						}
					],
					"stateMutability": "view",
					"type": "function"
				},
				{
					"inputs": [
						{
							"internalType": "int256",
							"name": "data",
							"type": "int256"
						}
					],
					"name": "changeTheData",
					"outputs": [],
					"stateMutability": "nonpayable",
					"type": "function"
				},
				{
					"inputs": [],
					"name": "showB",
					"outputs": [
						{
							"internalType": "int256",
							"name": "",
							"type": "int256"
						}
					],
					"stateMutability": "view",
					"type": "function"
				}
			],
			"devdoc": {
				"kind": "dev",
				"methods": {},
				"version": 1
			},
			"evm": {
				"assembly": "    /* \"fourth.sol\":66:282  contract Third{\r... */\n  mstore(0x40, 0x80)\n    /* \"fourth.sol\":103:105  89 */\n  0x59\n    /* \"fourth.sol\":89:105  int private A=89 */\n  0x00\n  sstore\n    /* \"fourth.sol\":125:127  78 */\n  0x4e\n    /* \"fourth.sol\":112:127  int public B=78 */\n  0x01\n  sstore\n    /* \"fourth.sol\":66:282  contract Third{\r... */\n  callvalue\n  dup1\n  iszero\n  tag_1\n  jumpi\n  0x00\n  dup1\n  revert\ntag_1:\n  pop\n  dataSize(sub_0)\n  dup1\n  dataOffset(sub_0)\n  0x00\n  codecopy\n  0x00\n  return\nstop\n\nsub_0: assembly {\n        /* \"fourth.sol\":66:282  contract Third{\r... */\n      mstore(0x40, 0x80)\n      callvalue\n      dup1\n      iszero\n      tag_1\n      jumpi\n      0x00\n      dup1\n      revert\n    tag_1:\n      pop\n      jumpi(tag_2, lt(calldatasize, 0x04))\n      shr(0xe0, calldataload(0x00))\n      dup1\n      0x32e7c5bf\n      eq\n      tag_3\n      jumpi\n      dup1\n      0x437b0ce0\n      eq\n      tag_4\n      jumpi\n      dup1\n      0xa6e53488\n      eq\n      tag_5\n      jumpi\n    tag_2:\n      0x00\n      dup1\n      revert\n        /* \"fourth.sol\":112:127  int public B=78 */\n    tag_3:\n      tag_6\n      tag_7\n      jump\t// in\n    tag_6:\n      mload(0x40)\n      tag_8\n      swap2\n      swap1\n      tag_9\n      jump\t// in\n    tag_8:\n      mload(0x40)\n      dup1\n      swap2\n      sub\n      swap1\n      return\n        /* \"fourth.sol\":211:279  function showB() public view returns(int){\r... */\n    tag_4:\n      tag_10\n      tag_11\n      jump\t// in\n    tag_10:\n      mload(0x40)\n      tag_12\n      swap2\n      swap1\n      tag_9\n      jump\t// in\n    tag_12:\n      mload(0x40)\n      dup1\n      swap2\n      sub\n      swap1\n      return\n        /* \"fourth.sol\":136:203  function changeTheData(int data) public {\r... */\n    tag_5:\n      tag_13\n      0x04\n      dup1\n      calldatasize\n      sub\n      dup2\n      add\n      swap1\n      tag_14\n      swap2\n      swap1\n      tag_15\n      jump\t// in\n    tag_14:\n      tag_16\n      jump\t// in\n    tag_13:\n      stop\n        /* \"fourth.sol\":112:127  int public B=78 */\n    tag_7:\n      sload(0x01)\n      dup2\n      jump\t// out\n        /* \"fourth.sol\":211:279  function showB() public view returns(int){\r... */\n    tag_11:\n        /* \"fourth.sol\":248:251  int */\n      0x00\n        /* \"fourth.sol\":270:271  B */\n      sload(0x01)\n        /* \"fourth.sol\":263:271  return B */\n      swap1\n      pop\n        /* \"fourth.sol\":211:279  function showB() public view returns(int){\r... */\n      swap1\n      jump\t// out\n        /* \"fourth.sol\":136:203  function changeTheData(int data) public {\r... */\n    tag_16:\n        /* \"fourth.sol\":191:195  data */\n      dup1\n        /* \"fourth.sol\":189:190  B */\n      sload(0x01)\n        /* \"fourth.sol\":189:195  B+data */\n      tag_19\n      swap2\n      swap1\n      tag_20\n      jump\t// in\n    tag_19:\n        /* \"fourth.sol\":187:188  B */\n      0x01\n        /* \"fourth.sol\":187:195  B=B+data */\n      dup2\n      swap1\n      sstore\n      pop\n        /* \"fourth.sol\":136:203  function changeTheData(int data) public {\r... */\n      pop\n      jump\t// out\n        /* \"#utility.yul\":7:144   */\n    tag_22:\n        /* \"#utility.yul\":52:57   */\n      0x00\n        /* \"#utility.yul\":90:96   */\n      dup2\n        /* \"#utility.yul\":77:97   */\n      calldataload\n        /* \"#utility.yul\":68:97   */\n      swap1\n      pop\n        /* \"#utility.yul\":106:138   */\n      tag_24\n        /* \"#utility.yul\":132:137   */\n      dup2\n        /* \"#utility.yul\":106:138   */\n      tag_25\n      jump\t// in\n    tag_24:\n        /* \"#utility.yul\":58:144   */\n      swap3\n      swap2\n      pop\n      pop\n      jump\t// out\n        /* \"#utility.yul\":150:410   */\n    tag_15:\n        /* \"#utility.yul\":208:214   */\n      0x00\n        /* \"#utility.yul\":257:259   */\n      0x20\n        /* \"#utility.yul\":245:254   */\n      dup3\n        /* \"#utility.yul\":236:243   */\n      dup5\n        /* \"#utility.yul\":232:255   */\n      sub\n        /* \"#utility.yul\":228:260   */\n      slt\n        /* \"#utility.yul\":225:227   */\n      iszero\n      tag_27\n      jumpi\n        /* \"#utility.yul\":273:274   */\n      0x00\n        /* \"#utility.yul\":270:271   */\n      dup1\n        /* \"#utility.yul\":263:275   */\n      revert\n        /* \"#utility.yul\":225:227   */\n    tag_27:\n        /* \"#utility.yul\":316:317   */\n      0x00\n        /* \"#utility.yul\":341:393   */\n      tag_28\n        /* \"#utility.yul\":385:392   */\n      dup5\n        /* \"#utility.yul\":376:382   */\n      dup3\n        /* \"#utility.yul\":365:374   */\n      dup6\n        /* \"#utility.yul\":361:383   */\n      add\n        /* \"#utility.yul\":341:393   */\n      tag_22\n      jump\t// in\n    tag_28:\n        /* \"#utility.yul\":331:393   */\n      swap2\n      pop\n        /* \"#utility.yul\":287:403   */\n      pop\n        /* \"#utility.yul\":215:410   */\n      swap3\n      swap2\n      pop\n      pop\n      jump\t// out\n        /* \"#utility.yul\":416:531   */\n    tag_29:\n        /* \"#utility.yul\":501:524   */\n      tag_31\n        /* \"#utility.yul\":518:523   */\n      dup2\n        /* \"#utility.yul\":501:524   */\n      tag_32\n      jump\t// in\n    tag_31:\n        /* \"#utility.yul\":496:499   */\n      dup3\n        /* \"#utility.yul\":489:525   */\n      mstore\n        /* \"#utility.yul\":479:531   */\n      pop\n      pop\n      jump\t// out\n        /* \"#utility.yul\":537:755   */\n    tag_9:\n        /* \"#utility.yul\":628:632   */\n      0x00\n        /* \"#utility.yul\":666:668   */\n      0x20\n        /* \"#utility.yul\":655:664   */\n      dup3\n        /* \"#utility.yul\":651:669   */\n      add\n        /* \"#utility.yul\":643:669   */\n      swap1\n      pop\n        /* \"#utility.yul\":679:748   */\n      tag_34\n        /* \"#utility.yul\":745:746   */\n      0x00\n        /* \"#utility.yul\":734:743   */\n      dup4\n        /* \"#utility.yul\":730:747   */\n      add\n        /* \"#utility.yul\":721:727   */\n      dup5\n        /* \"#utility.yul\":679:748   */\n      tag_29\n      jump\t// in\n    tag_34:\n        /* \"#utility.yul\":633:755   */\n      swap3\n      swap2\n      pop\n      pop\n      jump\t// out\n        /* \"#utility.yul\":761:1286   */\n    tag_20:\n        /* \"#utility.yul\":800:803   */\n      0x00\n        /* \"#utility.yul\":819:838   */\n      tag_36\n        /* \"#utility.yul\":836:837   */\n      dup3\n        /* \"#utility.yul\":819:838   */\n      tag_32\n      jump\t// in\n    tag_36:\n        /* \"#utility.yul\":814:838   */\n      swap2\n      pop\n        /* \"#utility.yul\":852:871   */\n      tag_37\n        /* \"#utility.yul\":869:870   */\n      dup4\n        /* \"#utility.yul\":852:871   */\n      tag_32\n      jump\t// in\n    tag_37:\n        /* \"#utility.yul\":847:871   */\n      swap3\n      pop\n        /* \"#utility.yul\":1040:1041   */\n      dup2\n        /* \"#utility.yul\":972:1038   */\n      0x7fffffffffffffffffffffffffffffffffffffffffffffffffffffffffffffff\n        /* \"#utility.yul\":968:1042   */\n      sub\n        /* \"#utility.yul\":965:966   */\n      dup4\n        /* \"#utility.yul\":961:1043   */\n      sgt\n        /* \"#utility.yul\":956:957   */\n      0x00\n        /* \"#utility.yul\":953:954   */\n      dup4\n        /* \"#utility.yul\":949:958   */\n      slt\n        /* \"#utility.yul\":942:959   */\n      iszero\n        /* \"#utility.yul\":938:1044   */\n      and\n        /* \"#utility.yul\":935:937   */\n      iszero\n      tag_38\n      jumpi\n        /* \"#utility.yul\":1047:1065   */\n      tag_39\n      tag_40\n      jump\t// in\n    tag_39:\n        /* \"#utility.yul\":935:937   */\n    tag_38:\n        /* \"#utility.yul\":1227:1228   */\n      dup2\n        /* \"#utility.yul\":1159:1225   */\n      0x8000000000000000000000000000000000000000000000000000000000000000\n        /* \"#utility.yul\":1155:1229   */\n      sub\n        /* \"#utility.yul\":1152:1153   */\n      dup4\n        /* \"#utility.yul\":1148:1230   */\n      slt\n        /* \"#utility.yul\":1144:1145   */\n      0x00\n        /* \"#utility.yul\":1141:1142   */\n      dup4\n        /* \"#utility.yul\":1137:1146   */\n      slt\n        /* \"#utility.yul\":1133:1231   */\n      and\n        /* \"#utility.yul\":1130:1132   */\n      iszero\n      tag_41\n      jumpi\n        /* \"#utility.yul\":1234:1252   */\n      tag_42\n      tag_40\n      jump\t// in\n    tag_42:\n        /* \"#utility.yul\":1130:1132   */\n    tag_41:\n        /* \"#utility.yul\":1278:1279   */\n      dup3\n        /* \"#utility.yul\":1275:1276   */\n      dup3\n        /* \"#utility.yul\":1271:1280   */\n      add\n        /* \"#utility.yul\":1264:1280   */\n      swap1\n      pop\n        /* \"#utility.yul\":804:1286   */\n      swap3\n      swap2\n      pop\n      pop\n      jump\t// out\n        /* \"#utility.yul\":1292:1368   */\n    tag_32:\n        /* \"#utility.yul\":1328:1335   */\n      0x00\n        /* \"#utility.yul\":1357:1362   */\n      dup2\n        /* \"#utility.yul\":1346:1362   */\n      swap1\n      pop\n        /* \"#utility.yul\":1336:1368   */\n      swap2\n      swap1\n      pop\n      jump\t// out\n        /* \"#utility.yul\":1374:1554   */\n    tag_40:\n        /* \"#utility.yul\":1422:1499   */\n      0x4e487b7100000000000000000000000000000000000000000000000000000000\n        /* \"#utility.yul\":1419:1420   */\n      0x00\n        /* \"#utility.yul\":1412:1500   */\n      mstore\n        /* \"#utility.yul\":1519:1523   */\n      0x11\n        /* \"#utility.yul\":1516:1517   */\n      0x04\n        /* \"#utility.yul\":1509:1524   */\n      mstore\n        /* \"#utility.yul\":1543:1547   */\n      0x24\n        /* \"#utility.yul\":1540:1541   */\n      0x00\n        /* \"#utility.yul\":1533:1548   */\n      revert\n        /* \"#utility.yul\":1560:1680   */\n    tag_25:\n        /* \"#utility.yul\":1632:1655   */\n      tag_46\n        /* \"#utility.yul\":1649:1654   */\n      dup2\n        /* \"#utility.yul\":1632:1655   */\n      tag_32\n      jump\t// in\n    tag_46:\n        /* \"#utility.yul\":1625:1630   */\n      dup2\n        /* \"#utility.yul\":1622:1656   */\n      eq\n        /* \"#utility.yul\":1612:1614   */\n      tag_47\n      jumpi\n        /* \"#utility.yul\":1670:1671   */\n      0x00\n        /* \"#utility.yul\":1667:1668   */\n      dup1\n        /* \"#utility.yul\":1660:1672   */\n      revert\n        /* \"#utility.yul\":1612:1614   */\n    tag_47:\n        /* \"#utility.yul\":1602:1680   */\n      pop\n      jump\t// out\n\n    auxdata: 0xa26469706673582212204c8a9cabf93431dc9deec15c57bcdb7d1b132309ac44c9c532eff230e1c1d95d64736f6c63430008040033\n}\n",
				"bytecode": {
					"linkReferences": {},
					"object": "60806040526059600055604e60015534801561001a57600080fd5b506102478061002a6000396000f3fe608060405234801561001057600080fd5b50600436106100415760003560e01c806332e7c5bf14610046578063437b0ce014610064578063a6e5348814610082575b600080fd5b61004e61009e565b60405161005b9190610112565b60405180910390f35b61006c6100a4565b6040516100799190610112565b60405180910390f35b61009c600480360381019061009791906100da565b6100ae565b005b60015481565b6000600154905090565b806001546100bc919061012d565b60018190555050565b6000813590506100d4816101fa565b92915050565b6000602082840312156100ec57600080fd5b60006100fa848285016100c5565b91505092915050565b61010c816101c1565b82525050565b60006020820190506101276000830184610103565b92915050565b6000610138826101c1565b9150610143836101c1565b9250817f7fffffffffffffffffffffffffffffffffffffffffffffffffffffffffffffff0383136000831215161561017e5761017d6101cb565b5b817f80000000000000000000000000000000000000000000000000000000000000000383126000831216156101b6576101b56101cb565b5b828201905092915050565b6000819050919050565b7f4e487b7100000000000000000000000000000000000000000000000000000000600052601160045260246000fd5b610203816101c1565b811461020e57600080fd5b5056fea26469706673582212204c8a9cabf93431dc9deec15c57bcdb7d1b132309ac44c9c532eff230e1c1d95d64736f6c63430008040033",
					"opcodes": "PUSH1 0x80 PUSH1 0x40 MSTORE PUSH1 0x59 PUSH1 0x0 SSTORE PUSH1 0x4E PUSH1 0x1 SSTORE CALLVALUE DUP1 ISZERO PUSH2 0x1A JUMPI PUSH1 0x0 DUP1 REVERT JUMPDEST POP PUSH2 0x247 DUP1 PUSH2 0x2A PUSH1 0x0 CODECOPY PUSH1 0x0 RETURN INVALID PUSH1 0x80 PUSH1 0x40 MSTORE CALLVALUE DUP1 ISZERO PUSH2 0x10 JUMPI PUSH1 0x0 DUP1 REVERT JUMPDEST POP PUSH1 0x4 CALLDATASIZE LT PUSH2 0x41 JUMPI PUSH1 0x0 CALLDATALOAD PUSH1 0xE0 SHR DUP1 PUSH4 0x32E7C5BF EQ PUSH2 0x46 JUMPI DUP1 PUSH4 0x437B0CE0 EQ PUSH2 0x64 JUMPI DUP1 PUSH4 0xA6E53488 EQ PUSH2 0x82 JUMPI JUMPDEST PUSH1 0x0 DUP1 REVERT JUMPDEST PUSH2 0x4E PUSH2 0x9E JUMP JUMPDEST PUSH1 0x40 MLOAD PUSH2 0x5B SWAP2 SWAP1 PUSH2 0x112 JUMP JUMPDEST PUSH1 0x40 MLOAD DUP1 SWAP2 SUB SWAP1 RETURN JUMPDEST PUSH2 0x6C PUSH2 0xA4 JUMP JUMPDEST PUSH1 0x40 MLOAD PUSH2 0x79 SWAP2 SWAP1 PUSH2 0x112 JUMP JUMPDEST PUSH1 0x40 MLOAD DUP1 SWAP2 SUB SWAP1 RETURN JUMPDEST PUSH2 0x9C PUSH1 0x4 DUP1 CALLDATASIZE SUB DUP2 ADD SWAP1 PUSH2 0x97 SWAP2 SWAP1 PUSH2 0xDA JUMP JUMPDEST PUSH2 0xAE JUMP JUMPDEST STOP JUMPDEST PUSH1 0x1 SLOAD DUP2 JUMP JUMPDEST PUSH1 0x0 PUSH1 0x1 SLOAD SWAP1 POP SWAP1 JUMP JUMPDEST DUP1 PUSH1 0x1 SLOAD PUSH2 0xBC SWAP2 SWAP1 PUSH2 0x12D JUMP JUMPDEST PUSH1 0x1 DUP2 SWAP1 SSTORE POP POP JUMP JUMPDEST PUSH1 0x0 DUP2 CALLDATALOAD SWAP1 POP PUSH2 0xD4 DUP2 PUSH2 0x1FA JUMP JUMPDEST SWAP3 SWAP2 POP POP JUMP JUMPDEST PUSH1 0x0 PUSH1 0x20 DUP3 DUP5 SUB SLT ISZERO PUSH2 0xEC JUMPI PUSH1 0x0 DUP1 REVERT JUMPDEST PUSH1 0x0 PUSH2 0xFA DUP5 DUP3 DUP6 ADD PUSH2 0xC5 JUMP JUMPDEST SWAP2 POP POP SWAP3 SWAP2 POP POP JUMP JUMPDEST PUSH2 0x10C DUP2 PUSH2 0x1C1 JUMP JUMPDEST DUP3 MSTORE POP POP JUMP JUMPDEST PUSH1 0x0 PUSH1 0x20 DUP3 ADD SWAP1 POP PUSH2 0x127 PUSH1 0x0 DUP4 ADD DUP5 PUSH2 0x103 JUMP JUMPDEST SWAP3 SWAP2 POP POP JUMP JUMPDEST PUSH1 0x0 PUSH2 0x138 DUP3 PUSH2 0x1C1 JUMP JUMPDEST SWAP2 POP PUSH2 0x143 DUP4 PUSH2 0x1C1 JUMP JUMPDEST SWAP3 POP DUP2 PUSH32 0x7FFFFFFFFFFFFFFFFFFFFFFFFFFFFFFFFFFFFFFFFFFFFFFFFFFFFFFFFFFFFFFF SUB DUP4 SGT PUSH1 0x0 DUP4 SLT ISZERO AND ISZERO PUSH2 0x17E JUMPI PUSH2 0x17D PUSH2 0x1CB JUMP JUMPDEST JUMPDEST DUP2 PUSH32 0x8000000000000000000000000000000000000000000000000000000000000000 SUB DUP4 SLT PUSH1 0x0 DUP4 SLT AND ISZERO PUSH2 0x1B6 JUMPI PUSH2 0x1B5 PUSH2 0x1CB JUMP JUMPDEST JUMPDEST DUP3 DUP3 ADD SWAP1 POP SWAP3 SWAP2 POP POP JUMP JUMPDEST PUSH1 0x0 DUP2 SWAP1 POP SWAP2 SWAP1 POP JUMP JUMPDEST PUSH32 0x4E487B7100000000000000000000000000000000000000000000000000000000 PUSH1 0x0 MSTORE PUSH1 0x11 PUSH1 0x4 MSTORE PUSH1 0x24 PUSH1 0x0 REVERT JUMPDEST PUSH2 0x203 DUP2 PUSH2 0x1C1 JUMP JUMPDEST DUP2 EQ PUSH2 0x20E JUMPI PUSH1 0x0 DUP1 REVERT JUMPDEST POP JUMP INVALID LOG2 PUSH5 0x6970667358 0x22 SLT KECCAK256 0x4C DUP11 SWAP13 0xAB 0xF9 CALLVALUE BALANCE 0xDC SWAP14 0xEE 0xC1 0x5C JUMPI 0xBC 0xDB PUSH30 0x1B132309AC44C9C532EFF230E1C1D95D64736F6C63430008040033000000 "
				},
				"gasEstimates": {
					"creation": {
						"codeDepositCost": "116600",
						"executionCost": "40177",
						"totalCost": "156777"
					},
					"external": {
						"B()": "1107",
						"changeTheData(int256)": "infinite",
						"showB()": "1137"
					}
				},
				"methodIdentifiers": {
					"B()": "32e7c5bf",
					"changeTheData(int256)": "a6e53488",
					"showB()": "437b0ce0"
				}
			},
			"storageLayout": {
				"storage": [
					{
						"astId": 4,
						"contract": "fourth.sol:Third",
						"label": "A",
						"offset": 0,
						"slot": "0",
						"type": "t_int256"
					},
					{
						"astId": 7,
						"contract": "fourth.sol:Third",
						"label": "B",
						"offset": 0,
						"slot": "1",
						"type": "t_int256"
					}
				],
				"types": {
					"t_int256": {
						"encoding": "inplace",
						"label": "int256",
						"numberOfBytes": "32"
					}
				}
			},
			"userdoc": {
				"kind": "user",
				"methods": {},
				"version": 1
			}
		}
	}
}