{
	"sixth.sol": {
		"Sixth": {
			"abi": [
				{
					"inputs": [
						{
							"internalType": "int256",
							"name": "a",
							"type": "int256"
						},
						{
							"internalType": "int256",
							"name": "b",
							"type": "int256"
						}
					],
					"name": "checking",
					"outputs": [
						{
							"internalType": "int256",
							"name": "",
							"type": "int256"
						}
					],
					"stateMutability": "nonpayable",
					"type": "function"
				},
				{
					"inputs": [],
					"name": "whatisNum",
					"outputs": [
						{
							"internalType": "int256",
							"name": "",
							"type": "int256"
						}
					],
					"stateMutability": "view",
					"type": "function"
				}
			],
			"devdoc": {
				"kind": "dev",
				"methods": {},
				"version": 1
			},
			"evm": {
				"assembly": "    /* \"sixth.sol\":66:348  contract Sixth{\r... */\n  mstore(0x40, 0x80)\n    /* \"sixth.sol\":103:105  10 */\n  0x0a\n    /* \"sixth.sol\":87:105  int private num=10 */\n  0x00\n  sstore\n    /* \"sixth.sol\":66:348  contract Sixth{\r... */\n  callvalue\n  dup1\n  iszero\n  tag_1\n  jumpi\n  0x00\n  dup1\n  revert\ntag_1:\n  pop\n  dataSize(sub_0)\n  dup1\n  dataOffset(sub_0)\n  0x00\n  codecopy\n  0x00\n  return\nstop\n\nsub_0: assembly {\n        /* \"sixth.sol\":66:348  contract Sixth{\r... */\n      mstore(0x40, 0x80)\n      callvalue\n      dup1\n      iszero\n      tag_1\n      jumpi\n      0x00\n      dup1\n      revert\n    tag_1:\n      pop\n      jumpi(tag_2, lt(calldatasize, 0x04))\n      shr(0xe0, calldataload(0x00))\n      dup1\n      0x094ebd07\n      eq\n      tag_3\n      jumpi\n      dup1\n      0xf01fe7e2\n      eq\n      tag_4\n      jumpi\n    tag_2:\n      0x00\n      dup1\n      revert\n        /* \"sixth.sol\":271:345  function whatisNum() view public returns(int){\r... */\n    tag_3:\n      tag_5\n      tag_6\n      jump\t// in\n    tag_5:\n      mload(0x40)\n      tag_7\n      swap2\n      swap1\n      tag_8\n      jump\t// in\n    tag_7:\n      mload(0x40)\n      dup1\n      swap2\n      sub\n      swap1\n      return\n        /* \"sixth.sol\":114:263  function checking(int a, int b) public returns(int){\r... */\n    tag_4:\n      tag_9\n      0x04\n      dup1\n      calldatasize\n      sub\n      dup2\n      add\n      swap1\n      tag_10\n      swap2\n      swap1\n      tag_11\n      jump\t// in\n    tag_10:\n      tag_12\n      jump\t// in\n    tag_9:\n      mload(0x40)\n      tag_13\n      swap2\n      swap1\n      tag_8\n      jump\t// in\n    tag_13:\n      mload(0x40)\n      dup1\n      swap2\n      sub\n      swap1\n      return\n        /* \"sixth.sol\":271:345  function whatisNum() view public returns(int){\r... */\n    tag_6:\n        /* \"sixth.sol\":312:315  int */\n      0x00\n        /* \"sixth.sol\":334:337  num */\n      dup1\n      sload\n        /* \"sixth.sol\":327:337  return num */\n      swap1\n      pop\n        /* \"sixth.sol\":271:345  function whatisNum() view public returns(int){\r... */\n      swap1\n      jump\t// out\n        /* \"sixth.sol\":114:263  function checking(int a, int b) public returns(int){\r... */\n    tag_12:\n        /* \"sixth.sol\":161:164  int */\n      0x00\n        /* \"sixth.sol\":176:186  int result */\n      dup1\n        /* \"sixth.sol\":189:190  b */\n      dup3\n        /* \"sixth.sol\":187:188  a */\n      dup5\n        /* \"sixth.sol\":187:190  a+b */\n      tag_16\n      swap2\n      swap1\n      tag_17\n      jump\t// in\n    tag_16:\n        /* \"sixth.sol\":176:190  int result=a+b */\n      swap1\n      pop\n        /* \"sixth.sol\":205:208  100 */\n      0x64\n        /* \"sixth.sol\":201:204  num */\n      0x00\n        /* \"sixth.sol\":201:208  num=100 */\n      dup2\n      swap1\n      sstore\n      pop\n        /* \"sixth.sol\":229:230  b */\n      dup3\n        /* \"sixth.sol\":227:228  a */\n      dup5\n        /* \"sixth.sol\":227:230  a>b */\n      sgt\n        /* \"sixth.sol\":219:231  require(a>b) */\n      tag_18\n      jumpi\n      0x00\n      dup1\n      revert\n    tag_18:\n        /* \"sixth.sol\":249:255  result */\n      dup1\n        /* \"sixth.sol\":242:255  return result */\n      swap2\n      pop\n      pop\n        /* \"sixth.sol\":114:263  function checking(int a, int b) public returns(int){\r... */\n      swap3\n      swap2\n      pop\n      pop\n      jump\t// out\n        /* \"#utility.yul\":7:144   */\n    tag_20:\n        /* \"#utility.yul\":52:57   */\n      0x00\n        /* \"#utility.yul\":90:96   */\n      dup2\n        /* \"#utility.yul\":77:97   */\n      calldataload\n        /* \"#utility.yul\":68:97   */\n      swap1\n      pop\n        /* \"#utility.yul\":106:138   */\n      tag_22\n        /* \"#utility.yul\":132:137   */\n      dup2\n        /* \"#utility.yul\":106:138   */\n      tag_23\n      jump\t// in\n    tag_22:\n        /* \"#utility.yul\":58:144   */\n      swap3\n      swap2\n      pop\n      pop\n      jump\t// out\n        /* \"#utility.yul\":150:553   */\n    tag_11:\n        /* \"#utility.yul\":216:222   */\n      0x00\n        /* \"#utility.yul\":224:230   */\n      dup1\n        /* \"#utility.yul\":273:275   */\n      0x40\n        /* \"#utility.yul\":261:270   */\n      dup4\n        /* \"#utility.yul\":252:259   */\n      dup6\n        /* \"#utility.yul\":248:271   */\n      sub\n        /* \"#utility.yul\":244:276   */\n      slt\n        /* \"#utility.yul\":241:243   */\n      iszero\n      tag_25\n      jumpi\n        /* \"#utility.yul\":289:290   */\n      0x00\n        /* \"#utility.yul\":286:287   */\n      dup1\n        /* \"#utility.yul\":279:291   */\n      revert\n        /* \"#utility.yul\":241:243   */\n    tag_25:\n        /* \"#utility.yul\":332:333   */\n      0x00\n        /* \"#utility.yul\":357:409   */\n      tag_26\n        /* \"#utility.yul\":401:408   */\n      dup6\n        /* \"#utility.yul\":392:398   */\n      dup3\n        /* \"#utility.yul\":381:390   */\n      dup7\n        /* \"#utility.yul\":377:399   */\n      add\n        /* \"#utility.yul\":357:409   */\n      tag_20\n      jump\t// in\n    tag_26:\n        /* \"#utility.yul\":347:409   */\n      swap3\n      pop\n        /* \"#utility.yul\":303:419   */\n      pop\n        /* \"#utility.yul\":458:460   */\n      0x20\n        /* \"#utility.yul\":484:536   */\n      tag_27\n        /* \"#utility.yul\":528:535   */\n      dup6\n        /* \"#utility.yul\":519:525   */\n      dup3\n        /* \"#utility.yul\":508:517   */\n      dup7\n        /* \"#utility.yul\":504:526   */\n      add\n        /* \"#utility.yul\":484:536   */\n      tag_20\n      jump\t// in\n    tag_27:\n        /* \"#utility.yul\":474:536   */\n      swap2\n      pop\n        /* \"#utility.yul\":429:546   */\n      pop\n        /* \"#utility.yul\":231:553   */\n      swap3\n      pop\n      swap3\n      swap1\n      pop\n      jump\t// out\n        /* \"#utility.yul\":559:674   */\n    tag_28:\n        /* \"#utility.yul\":644:667   */\n      tag_30\n        /* \"#utility.yul\":661:666   */\n      dup2\n        /* \"#utility.yul\":644:667   */\n      tag_31\n      jump\t// in\n    tag_30:\n        /* \"#utility.yul\":639:642   */\n      dup3\n        /* \"#utility.yul\":632:668   */\n      mstore\n        /* \"#utility.yul\":622:674   */\n      pop\n      pop\n      jump\t// out\n        /* \"#utility.yul\":680:898   */\n    tag_8:\n        /* \"#utility.yul\":771:775   */\n      0x00\n        /* \"#utility.yul\":809:811   */\n      0x20\n        /* \"#utility.yul\":798:807   */\n      dup3\n        /* \"#utility.yul\":794:812   */\n      add\n        /* \"#utility.yul\":786:812   */\n      swap1\n      pop\n        /* \"#utility.yul\":822:891   */\n      tag_33\n        /* \"#utility.yul\":888:889   */\n      0x00\n        /* \"#utility.yul\":877:886   */\n      dup4\n        /* \"#utility.yul\":873:890   */\n      add\n        /* \"#utility.yul\":864:870   */\n      dup5\n        /* \"#utility.yul\":822:891   */\n      tag_28\n      jump\t// in\n    tag_33:\n        /* \"#utility.yul\":776:898   */\n      swap3\n      swap2\n      pop\n      pop\n      jump\t// out\n        /* \"#utility.yul\":904:1429   */\n    tag_17:\n        /* \"#utility.yul\":943:946   */\n      0x00\n        /* \"#utility.yul\":962:981   */\n      tag_35\n        /* \"#utility.yul\":979:980   */\n      dup3\n        /* \"#utility.yul\":962:981   */\n      tag_31\n      jump\t// in\n    tag_35:\n        /* \"#utility.yul\":957:981   */\n      swap2\n      pop\n        /* \"#utility.yul\":995:1014   */\n      tag_36\n        /* \"#utility.yul\":1012:1013   */\n      dup4\n        /* \"#utility.yul\":995:1014   */\n      tag_31\n      jump\t// in\n    tag_36:\n        /* \"#utility.yul\":990:1014   */\n      swap3\n      pop\n        /* \"#utility.yul\":1183:1184   */\n      dup2\n        /* \"#utility.yul\":1115:1181   */\n      0x7fffffffffffffffffffffffffffffffffffffffffffffffffffffffffffffff\n        /* \"#utility.yul\":1111:1185   */\n      sub\n        /* \"#utility.yul\":1108:1109   */\n      dup4\n        /* \"#utility.yul\":1104:1186   */\n      sgt\n        /* \"#utility.yul\":1099:1100   */\n      0x00\n        /* \"#utility.yul\":1096:1097   */\n      dup4\n        /* \"#utility.yul\":1092:1101   */\n      slt\n        /* \"#utility.yul\":1085:1102   */\n      iszero\n        /* \"#utility.yul\":1081:1187   */\n      and\n        /* \"#utility.yul\":1078:1080   */\n      iszero\n      tag_37\n      jumpi\n        /* \"#utility.yul\":1190:1208   */\n      tag_38\n      tag_39\n      jump\t// in\n    tag_38:\n        /* \"#utility.yul\":1078:1080   */\n    tag_37:\n        /* \"#utility.yul\":1370:1371   */\n      dup2\n        /* \"#utility.yul\":1302:1368   */\n      0x8000000000000000000000000000000000000000000000000000000000000000\n        /* \"#utility.yul\":1298:1372   */\n      sub\n        /* \"#utility.yul\":1295:1296   */\n      dup4\n        /* \"#utility.yul\":1291:1373   */\n      slt\n        /* \"#utility.yul\":1287:1288   */\n      0x00\n        /* \"#utility.yul\":1284:1285   */\n      dup4\n        /* \"#utility.yul\":1280:1289   */\n      slt\n        /* \"#utility.yul\":1276:1374   */\n      and\n        /* \"#utility.yul\":1273:1275   */\n      iszero\n      tag_40\n      jumpi\n        /* \"#utility.yul\":1377:1395   */\n      tag_41\n      tag_39\n      jump\t// in\n    tag_41:\n        /* \"#utility.yul\":1273:1275   */\n    tag_40:\n        /* \"#utility.yul\":1421:1422   */\n      dup3\n        /* \"#utility.yul\":1418:1419   */\n      dup3\n        /* \"#utility.yul\":1414:1423   */\n      add\n        /* \"#utility.yul\":1407:1423   */\n      swap1\n      pop\n        /* \"#utility.yul\":947:1429   */\n      swap3\n      swap2\n      pop\n      pop\n      jump\t// out\n        /* \"#utility.yul\":1435:1511   */\n    tag_31:\n        /* \"#utility.yul\":1471:1478   */\n      0x00\n        /* \"#utility.yul\":1500:1505   */\n      dup2\n        /* \"#utility.yul\":1489:1505   */\n      swap1\n      pop\n        /* \"#utility.yul\":1479:1511   */\n      swap2\n      swap1\n      pop\n      jump\t// out\n        /* \"#utility.yul\":1517:1697   */\n    tag_39:\n        /* \"#utility.yul\":1565:1642   */\n      0x4e487b7100000000000000000000000000000000000000000000000000000000\n        /* \"#utility.yul\":1562:1563   */\n      0x00\n        /* \"#utility.yul\":1555:1643   */\n      mstore\n        /* \"#utility.yul\":1662:1666   */\n      0x11\n        /* \"#utility.yul\":1659:1660   */\n      0x04\n        /* \"#utility.yul\":1652:1667   */\n      mstore\n        /* \"#utility.yul\":1686:1690   */\n      0x24\n        /* \"#utility.yul\":1683:1684   */\n      0x00\n        /* \"#utility.yul\":1676:1691   */\n      revert\n        /* \"#utility.yul\":1703:1823   */\n    tag_23:\n        /* \"#utility.yul\":1775:1798   */\n      tag_45\n        /* \"#utility.yul\":1792:1797   */\n      dup2\n        /* \"#utility.yul\":1775:1798   */\n      tag_31\n      jump\t// in\n    tag_45:\n        /* \"#utility.yul\":1768:1773   */\n      dup2\n        /* \"#utility.yul\":1765:1799   */\n      eq\n        /* \"#utility.yul\":1755:1757   */\n      tag_46\n      jumpi\n        /* \"#utility.yul\":1813:1814   */\n      0x00\n        /* \"#utility.yul\":1810:1811   */\n      dup1\n        /* \"#utility.yul\":1803:1815   */\n      revert\n        /* \"#utility.yul\":1755:1757   */\n    tag_46:\n        /* \"#utility.yul\":1745:1823   */\n      pop\n      jump\t// out\n\n    auxdata: 0xa2646970667358221220333ba61e3f9c3367c40dc604a6027dbeeaef0a3a4f0200e91a143b498370677464736f6c63430008040033\n}\n",
				"bytecode": {
					"linkReferences": {},
					"object": "6080604052600a60005534801561001557600080fd5b50610256806100256000396000f3fe608060405234801561001057600080fd5b50600436106100365760003560e01c8063094ebd071461003b578063f01fe7e214610059575b600080fd5b610043610089565b6040516100509190610121565b60405180910390f35b610073600480360381019061006e91906100d6565b610092565b6040516100809190610121565b60405180910390f35b60008054905090565b60008082846100a1919061013c565b905060646000819055508284136100b757600080fd5b8091505092915050565b6000813590506100d081610209565b92915050565b600080604083850312156100e957600080fd5b60006100f7858286016100c1565b9250506020610108858286016100c1565b9150509250929050565b61011b816101d0565b82525050565b60006020820190506101366000830184610112565b92915050565b6000610147826101d0565b9150610152836101d0565b9250817f7fffffffffffffffffffffffffffffffffffffffffffffffffffffffffffffff0383136000831215161561018d5761018c6101da565b5b817f80000000000000000000000000000000000000000000000000000000000000000383126000831216156101c5576101c46101da565b5b828201905092915050565b6000819050919050565b7f4e487b7100000000000000000000000000000000000000000000000000000000600052601160045260246000fd5b610212816101d0565b811461021d57600080fd5b5056fea2646970667358221220333ba61e3f9c3367c40dc604a6027dbeeaef0a3a4f0200e91a143b498370677464736f6c63430008040033",
					"opcodes": "PUSH1 0x80 PUSH1 0x40 MSTORE PUSH1 0xA PUSH1 0x0 SSTORE CALLVALUE DUP1 ISZERO PUSH2 0x15 JUMPI PUSH1 0x0 DUP1 REVERT JUMPDEST POP PUSH2 0x256 DUP1 PUSH2 0x25 PUSH1 0x0 CODECOPY PUSH1 0x0 RETURN INVALID PUSH1 0x80 PUSH1 0x40 MSTORE CALLVALUE DUP1 ISZERO PUSH2 0x10 JUMPI PUSH1 0x0 DUP1 REVERT JUMPDEST POP PUSH1 0x4 CALLDATASIZE LT PUSH2 0x36 JUMPI PUSH1 0x0 CALLDATALOAD PUSH1 0xE0 SHR DUP1 PUSH4 0x94EBD07 EQ PUSH2 0x3B JUMPI DUP1 PUSH4 0xF01FE7E2 EQ PUSH2 0x59 JUMPI JUMPDEST PUSH1 0x0 DUP1 REVERT JUMPDEST PUSH2 0x43 PUSH2 0x89 JUMP JUMPDEST PUSH1 0x40 MLOAD PUSH2 0x50 SWAP2 SWAP1 PUSH2 0x121 JUMP JUMPDEST PUSH1 0x40 MLOAD DUP1 SWAP2 SUB SWAP1 RETURN JUMPDEST PUSH2 0x73 PUSH1 0x4 DUP1 CALLDATASIZE SUB DUP2 ADD SWAP1 PUSH2 0x6E SWAP2 SWAP1 PUSH2 0xD6 JUMP JUMPDEST PUSH2 0x92 JUMP JUMPDEST PUSH1 0x40 MLOAD PUSH2 0x80 SWAP2 SWAP1 PUSH2 0x121 JUMP JUMPDEST PUSH1 0x40 MLOAD DUP1 SWAP2 SUB SWAP1 RETURN JUMPDEST PUSH1 0x0 DUP1 SLOAD SWAP1 POP SWAP1 JUMP JUMPDEST PUSH1 0x0 DUP1 DUP3 DUP5 PUSH2 0xA1 SWAP2 SWAP1 PUSH2 0x13C JUMP JUMPDEST SWAP1 POP PUSH1 0x64 PUSH1 0x0 DUP2 SWAP1 SSTORE POP DUP3 DUP5 SGT PUSH2 0xB7 JUMPI PUSH1 0x0 DUP1 REVERT JUMPDEST DUP1 SWAP2 POP POP SWAP3 SWAP2 POP POP JUMP JUMPDEST PUSH1 0x0 DUP2 CALLDATALOAD SWAP1 POP PUSH2 0xD0 DUP2 PUSH2 0x209 JUMP JUMPDEST SWAP3 SWAP2 POP POP JUMP JUMPDEST PUSH1 0x0 DUP1 PUSH1 0x40 DUP4 DUP6 SUB SLT ISZERO PUSH2 0xE9 JUMPI PUSH1 0x0 DUP1 REVERT JUMPDEST PUSH1 0x0 PUSH2 0xF7 DUP6 DUP3 DUP7 ADD PUSH2 0xC1 JUMP JUMPDEST SWAP3 POP POP PUSH1 0x20 PUSH2 0x108 DUP6 DUP3 DUP7 ADD PUSH2 0xC1 JUMP JUMPDEST SWAP2 POP POP SWAP3 POP SWAP3 SWAP1 POP JUMP JUMPDEST PUSH2 0x11B DUP2 PUSH2 0x1D0 JUMP JUMPDEST DUP3 MSTORE POP POP JUMP JUMPDEST PUSH1 0x0 PUSH1 0x20 DUP3 ADD SWAP1 POP PUSH2 0x136 PUSH1 0x0 DUP4 ADD DUP5 PUSH2 0x112 JUMP JUMPDEST SWAP3 SWAP2 POP POP JUMP JUMPDEST PUSH1 0x0 PUSH2 0x147 DUP3 PUSH2 0x1D0 JUMP JUMPDEST SWAP2 POP PUSH2 0x152 DUP4 PUSH2 0x1D0 JUMP JUMPDEST SWAP3 POP DUP2 PUSH32 0x7FFFFFFFFFFFFFFFFFFFFFFFFFFFFFFFFFFFFFFFFFFFFFFFFFFFFFFFFFFFFFFF SUB DUP4 SGT PUSH1 0x0 DUP4 SLT ISZERO AND ISZERO PUSH2 0x18D JUMPI PUSH2 0x18C PUSH2 0x1DA JUMP JUMPDEST JUMPDEST DUP2 PUSH32 0x8000000000000000000000000000000000000000000000000000000000000000 SUB DUP4 SLT PUSH1 0x0 DUP4 SLT AND ISZERO PUSH2 0x1C5 JUMPI PUSH2 0x1C4 PUSH2 0x1DA JUMP JUMPDEST JUMPDEST DUP3 DUP3 ADD SWAP1 POP SWAP3 SWAP2 POP POP JUMP JUMPDEST PUSH1 0x0 DUP2 SWAP1 POP SWAP2 SWAP1 POP JUMP JUMPDEST PUSH32 0x4E487B7100000000000000000000000000000000000000000000000000000000 PUSH1 0x0 MSTORE PUSH1 0x11 PUSH1 0x4 MSTORE PUSH1 0x24 PUSH1 0x0 REVERT JUMPDEST PUSH2 0x212 DUP2 PUSH2 0x1D0 JUMP JUMPDEST DUP2 EQ PUSH2 0x21D JUMPI PUSH1 0x0 DUP1 REVERT JUMPDEST POP JUMP INVALID LOG2 PUSH5 0x6970667358 0x22 SLT KECCAK256 CALLER EXTCODESIZE 0xA6 0x1E EXTCODEHASH SWAP13 CALLER PUSH8 0xC40DC604A6027DBE 0xEA 0xEF EXP GASPRICE 0x4F MUL STOP 0xE9 BYTE EQ EXTCODESIZE 0x49 DUP4 PUSH17 0x677464736F6C6343000804003300000000 "
				},
				"gasEstimates": {
					"creation": {
						"codeDepositCost": "119600",
						"executionCost": "20171",
						"totalCost": "139771"
					},
					"external": {
						"checking(int256,int256)": "infinite",
						"whatisNum()": "1115"
					}
				},
				"methodIdentifiers": {
					"checking(int256,int256)": "f01fe7e2",
					"whatisNum()": "094ebd07"
				}
			},
			"storageLayout": {
				"storage": [
					{
						"astId": 4,
						"contract": "sixth.sol:Sixth",
						"label": "num",
						"offset": 0,
						"slot": "0",
						"type": "t_int256"
					}
				],
				"types": {
					"t_int256": {
						"encoding": "inplace",
						"label": "int256",
						"numberOfBytes": "32"
					}
				}
			},
			"userdoc": {
				"kind": "user",
				"methods": {},
				"version": 1
			}
		}
	}
}