{
	"data": {
		"bytecode": {
			"linkReferences": {},
			"object": "60806040526059600055604e60015534801561001a57600080fd5b5060f8806100296000396000f3fe6080604052348015600f57600080fd5b5060043610603c5760003560e01c806332e7c5bf146041578063f446c1d014605b578063f8a8fd6d146075575b600080fd5b6047607d565b60405160529190609f565b60405180910390f35b60616083565b604051606c9190609f565b60405180910390f35b607b6089565b005b60015481565b60005481565b6000605a905050565b60998160b8565b82525050565b600060208201905060b260008301846092565b92915050565b600081905091905056fea2646970667358221220abea189d1fdcf14dd873183b14134b586a012c319316c3f97163ab396101b0a464736f6c63430008040033",
			"opcodes": "PUSH1 0x80 PUSH1 0x40 MSTORE PUSH1 0x59 PUSH1 0x0 SSTORE PUSH1 0x4E PUSH1 0x1 SSTORE CALLVALUE DUP1 ISZERO PUSH2 0x1A JUMPI PUSH1 0x0 DUP1 REVERT JUMPDEST POP PUSH1 0xF8 DUP1 PUSH2 0x29 PUSH1 0x0 CODECOPY PUSH1 0x0 RETURN INVALID PUSH1 0x80 PUSH1 0x40 MSTORE CALLVALUE DUP1 ISZERO PUSH1 0xF JUMPI PUSH1 0x0 DUP1 REVERT JUMPDEST POP PUSH1 0x4 CALLDATASIZE LT PUSH1 0x3C JUMPI PUSH1 0x0 CALLDATALOAD PUSH1 0xE0 SHR DUP1 PUSH4 0x32E7C5BF EQ PUSH1 0x41 JUMPI DUP1 PUSH4 0xF446C1D0 EQ PUSH1 0x5B JUMPI DUP1 PUSH4 0xF8A8FD6D EQ PUSH1 0x75 JUMPI JUMPDEST PUSH1 0x0 DUP1 REVERT JUMPDEST PUSH1 0x47 PUSH1 0x7D JUMP JUMPDEST PUSH1 0x40 MLOAD PUSH1 0x52 SWAP2 SWAP1 PUSH1 0x9F JUMP JUMPDEST PUSH1 0x40 MLOAD DUP1 SWAP2 SUB SWAP1 RETURN JUMPDEST PUSH1 0x61 PUSH1 0x83 JUMP JUMPDEST PUSH1 0x40 MLOAD PUSH1 0x6C SWAP2 SWAP1 PUSH1 0x9F JUMP JUMPDEST PUSH1 0x40 MLOAD DUP1 SWAP2 SUB SWAP1 RETURN JUMPDEST PUSH1 0x7B PUSH1 0x89 JUMP JUMPDEST STOP JUMPDEST PUSH1 0x1 SLOAD DUP2 JUMP JUMPDEST PUSH1 0x0 SLOAD DUP2 JUMP JUMPDEST PUSH1 0x0 PUSH1 0x5A SWAP1 POP POP JUMP JUMPDEST PUSH1 0x99 DUP2 PUSH1 0xB8 JUMP JUMPDEST DUP3 MSTORE POP POP JUMP JUMPDEST PUSH1 0x0 PUSH1 0x20 DUP3 ADD SWAP1 POP PUSH1 0xB2 PUSH1 0x0 DUP4 ADD DUP5 PUSH1 0x92 JUMP JUMPDEST SWAP3 SWAP2 POP POP JUMP JUMPDEST PUSH1 0x0 DUP2 SWAP1 POP SWAP2 SWAP1 POP JUMP INVALID LOG2 PUSH5 0x6970667358 0x22 SLT KECCAK256 0xAB 0xEA XOR SWAP14 0x1F 0xDC CALL 0x4D 0xD8 PUSH20 0x183B14134B586A012C319316C3F97163AB396101 0xB0 LOG4 PUSH5 0x736F6C6343 STOP ADDMOD DIV STOP CALLER "
		},
		"gasEstimates": {
			"creation": {
				"codeDepositCost": "49600",
				"executionCost": "40111",
				"totalCost": "89711"
			},
			"external": {
				"A()": "1129",
				"B()": "1107",
				"test()": "179"
			}
		},
		"methodIdentifiers": {
			"A()": "f446c1d0",
			"B()": "32e7c5bf",
			"test()": "f8a8fd6d"
		}
	},
	"abi": [
		{
			"inputs": [],
			"name": "A",
			"outputs": [
				{
					"internalType": "int256",
					"name": "",
					"type": "int256"
				}
			],
			"stateMutability": "view",
			"type": "function"
		},
		{
			"inputs": [],
			"name": "B",
			"outputs": [
				{
					"internalType": "int256",
					"name": "",
					"type": "int256"
				}
			],
			"stateMutability": "view",
			"type": "function"
		},
		{
			"inputs": [],
			"name": "test",
			"outputs": [],
			"stateMutability": "pure",
			"type": "function"
		}
	]
}