{
	"data": {
		"bytecode": {
			"linkReferences": {},
			"object": "60a060405234801561001057600080fd5b5060636080818152505060ca60008190555060805161010261003c6000396000607801526101026000f3fe6080604052348015600f57600080fd5b506004361060325760003560e01c80632d95e0ae146037578063bca0ac85146051575b600080fd5b603d606b565b6040516048919060a9565b60405180910390f35b60576074565b6040516062919060a9565b60405180910390f35b60008054905090565b60007f0000000000000000000000000000000000000000000000000000000000000000905090565b60a38160c2565b82525050565b600060208201905060bc6000830184609c565b92915050565b600081905091905056fea26469706673582212207889683ee2ca9f42efefd847fc3e64ca2c8f4bdc62d979082cfc5bb3a589b75c64736f6c63430008040033",
			"opcodes": "PUSH1 0xA0 PUSH1 0x40 MSTORE CALLVALUE DUP1 ISZERO PUSH2 0x10 JUMPI PUSH1 0x0 DUP1 REVERT JUMPDEST POP PUSH1 0x63 PUSH1 0x80 DUP2 DUP2 MSTORE POP POP PUSH1 0xCA PUSH1 0x0 DUP2 SWAP1 SSTORE POP PUSH1 0x80 MLOAD PUSH2 0x102 PUSH2 0x3C PUSH1 0x0 CODECOPY PUSH1 0x0 PUSH1 0x78 ADD MSTORE PUSH2 0x102 PUSH1 0x0 RETURN INVALID PUSH1 0x80 PUSH1 0x40 MSTORE CALLVALUE DUP1 ISZERO PUSH1 0xF JUMPI PUSH1 0x0 DUP1 REVERT JUMPDEST POP PUSH1 0x4 CALLDATASIZE LT PUSH1 0x32 JUMPI PUSH1 0x0 CALLDATALOAD PUSH1 0xE0 SHR DUP1 PUSH4 0x2D95E0AE EQ PUSH1 0x37 JUMPI DUP1 PUSH4 0xBCA0AC85 EQ PUSH1 0x51 JUMPI JUMPDEST PUSH1 0x0 DUP1 REVERT JUMPDEST PUSH1 0x3D PUSH1 0x6B JUMP JUMPDEST PUSH1 0x40 MLOAD PUSH1 0x48 SWAP2 SWAP1 PUSH1 0xA9 JUMP JUMPDEST PUSH1 0x40 MLOAD DUP1 SWAP2 SUB SWAP1 RETURN JUMPDEST PUSH1 0x57 PUSH1 0x74 JUMP JUMPDEST PUSH1 0x40 MLOAD PUSH1 0x62 SWAP2 SWAP1 PUSH1 0xA9 JUMP JUMPDEST PUSH1 0x40 MLOAD DUP1 SWAP2 SUB SWAP1 RETURN JUMPDEST PUSH1 0x0 DUP1 SLOAD SWAP1 POP SWAP1 JUMP JUMPDEST PUSH1 0x0 PUSH32 0x0 SWAP1 POP SWAP1 JUMP JUMPDEST PUSH1 0xA3 DUP2 PUSH1 0xC2 JUMP JUMPDEST DUP3 MSTORE POP POP JUMP JUMPDEST PUSH1 0x0 PUSH1 0x20 DUP3 ADD SWAP1 POP PUSH1 0xBC PUSH1 0x0 DUP4 ADD DUP5 PUSH1 0x9C JUMP JUMPDEST SWAP3 SWAP2 POP POP JUMP JUMPDEST PUSH1 0x0 DUP2 SWAP1 POP SWAP2 SWAP1 POP JUMP INVALID LOG2 PUSH5 0x6970667358 0x22 SLT KECCAK256 PUSH25 0x89683EE2CA9F42EFEFD847FC3E64CA2C8F4BDC62D979082CFC JUMPDEST 0xB3 0xA5 DUP10 0xB7 0x5C PUSH5 0x736F6C6343 STOP ADDMOD DIV STOP CALLER "
		},
		"gasEstimates": {
			"creation": {
				"codeDepositCost": "51600",
				"executionCost": "infinite",
				"totalCost": "infinite"
			},
			"external": {
				"checkValueA()": "infinite",
				"checkValueB()": "1115"
			}
		},
		"methodIdentifiers": {
			"checkValueA()": "bca0ac85",
			"checkValueB()": "2d95e0ae"
		}
	},
	"abi": [
		{
			"inputs": [],
			"stateMutability": "nonpayable",
			"type": "constructor"
		},
		{
			"inputs": [],
			"name": "checkValueA",
			"outputs": [
				{
					"internalType": "int256",
					"name": "",
					"type": "int256"
				}
			],
			"stateMutability": "view",
			"type": "function"
		},
		{
			"inputs": [],
			"name": "checkValueB",
			"outputs": [
				{
					"internalType": "int256",
					"name": "",
					"type": "int256"
				}
			],
			"stateMutability": "view",
			"type": "function"
		}
	]
}